:020000040000FA
:1000000000040020E90800007D050000C908000088
:1000100087050000910500009B050000000000001E
:100020000000000000000000000000000D090000BA
:10003000A505000000000000AF050000B9050000A4
:10004000C3050000CD050000D7050000E105000054
:10005000EB050000F5050000FF05000009060000A3
:10006000130600001D0600002706000031060000F0
:100070003B060000450600004F0600005906000040
:10008000630600006D060000770600008106000090
:100090008B060000950600009F060000A9060000E0
:1000A000B3060000BD060000C7060000D106000030
:1000B000DB060000E5060000EF060000F906000080
:1000C000030700000D0700001707000021070000CC
:1000D0002B070000350700003F070000490700001C
:1000E000530700005D07000067070000710700006C
:1000F0007B070000850700008F07000099070000BC
:10010000A30700001FB500F003F88DE80F001FBD26
:1001100000F0E0BB1FB56FF00100009040100390AD
:10012000029001904FF010208069000B420900F00E
:100130001F045DF822300120A04083434DF8223097
:10014000684600F045F91FBDF0B54FF6FF734FF458
:10015000B4751A466E1E11E0A94201D3344600E080
:100160000C46091B30F8027B641E3B441A44F9D14B
:100170009CB204EB134394B204EB12420029EBD17E
:1001800098B200EB134002EB124140EA0140F0BD8F
:10019000DE4992B00446D1E90001CDE91001FF2209
:1001A0004021684600F03CFB94E80F008DE80F000A
:1001B000684610A902E004C841F8042D8842FAD12B
:1001C00010216846FFF7C0FF1090AA208DF8440068
:1001D000FFF7A0FF00F0F3F84FF01024A069102201
:1001E0006946803000F002F9A069082210A900F0E9
:1001F000FDF800F0D8F84FF080510A6949690068AD
:100200004A43824201D8102070470020704710B541
:10021000D0E900214FF0805002EB8103026944696C
:100220006243934209D84FF01022536903EB8103D4
:100230000169406941438B4201D9092010BD5069D1
:10024000401C01D0002010BD0F2010BD70B501680A
:100250000446AF4D4FF01020072952D2DFE801F0DD
:10026000330419293C1E2500D4E902656468294637
:10027000304600F0CDF82A462146304600F0B6F868
:10028000AA002146304600F09FFA002800D0032043
:1002900070BD00F051FB4FF4805007E0201DFFF7C8
:1002A000AAFF0028F4D100F047FB60682860002016
:1002B00070BD241D94E80700920000F085FA002824
:1002C000F6D00E2070BD8069401C12D0201DFFF7B3
:1002D0009EFF0028F6D109E08069401C09D0201D4E
:1002E000FFF789FF0028EDD1606820B12046FFF7B5
:1002F0004FFF042070BDFFF70DFF00F060F800F025
:1003000052F8072070BD10B50C46182802D0012005
:10031000086010BD2068FFF799FF206010BD4FF006
:100320001024A069401C05D0A569A66980353079E4
:10033000AA2808D06069401C2DD060690068401C64
:1003400029D060692CE010212846FFF7FDFE3168B6
:1003500081421CD1A16901F18002C03105E030B1B8
:1003600008CA51F8040D984201D1012000E0002094
:100370008A42F4D158B1286810B1042803D0FEE7AE
:10038000284600F057F862496868086008E000F005
:1003900016F800F008F84FF480500168491C01D0AD
:1003A00000F0A4FAFEE7BFF34F8F5A4801685A4A9B
:1003B00001F4E06111430160BFF34F8FFEE74FF09E
:1003C00010208169491C02D0806900F0AEB87047E6
:1003D000524A01681160121D416811604F4A8168DC
:1003E00010321160111DC068086070472DE9F0419E
:1003F00017460D460646002406E03046296800F000
:10040000A7F8641C2D1D361DBC42F6D3BDE8F08153
:1004100070B50C4605464FF4806608E0284600F0AB
:1004200084F8B44205D3A4F5806405F58055002C0A
:10043000F4D170BD4168044609B1012500E00025F2
:100440004FF010267069A268920000F0BDF9C8B1A3
:10045000204600F01AF89DB17669A56864684FF4EB
:10046000002084420AD2854208D229463046FFF74E
:10047000CFFF2A4621463046FFF7B8FFFFF79FFF20
:10048000FFF791FFFFF746FEF8E72DE9FF414FF038
:100490001024616980680D0B01EB800000F6FF708D
:1004A000010B0020009001900290024603906846E4
:1004B00001230BE0560902F01F0C50F8267003FAD6
:1004C0000CFC47EA0C0740F82670521CAA42F1D3F4
:1004D0000AE04A0901F01F0650F8225003FA06F616
:1004E000354340F82250491C8029F2D3A169090BF9
:1004F0004A0901F01F0150F822408B409C4340F80C
:100500002240FFF765FFBDE8FF8100005C090000A5
:10051000000000200CED00E00400FA050006004099
:10052000144801680029FCD07047134A0221116069
:1005300010490B68002BFCD00F4B1B1D186008687E
:100540000028FCD00020106008680028FCD070470C
:10055000094B10B501221A60064A1468002CFCD021
:10056000016010680028FCD0002018601068002886
:10057000FCD010BD00E4014004E5014008208F4993
:1005800009680958084710208C4909680958084724
:1005900014208A49096809580847182087490968BA
:1005A0000958084730208549096809580847382004
:1005B00082490968095808473C2080490968095858
:1005C000084740207D4909680958084744207B496D
:1005D00009680958084748207849096809580847B0
:1005E0004C20764909680958084750207349096822
:1005F0000958084754207149096809580847582084
:100600006E490968095808475C206C49096809580F
:100610000847602069490968095808476420674904
:100620000968095808476820644909680958084753
:100630006C20624909680958084770205F490968B9
:100640000958084774205D49096809580847782007
:100650005A490968095808477C20584909680958C7
:10066000084780205549096809580847842053499C
:1006700009680958084788205049096809580847F7
:100680008C204E4909680958084790204B49096851
:10069000095808479420494909680958084798208B
:1006A00046490968095808479C204449096809587F
:1006B0000847A0204149096809580847A4203F4934
:1006C000096809580847A8203C490968095808479B
:1006D000AC203A49096809580847B02037490968E9
:1006E00009580847B4203549096809580847B8200F
:1006F0003249096809580847BC2030490968095837
:100700000847C0202D49096809580847C4202B49CB
:10071000096809580847C82028490968095808473E
:10072000CC202649096809580847D0202349096880
:1007300009580847D4202149096809580847D82092
:100740001E49096809580847DC201C4909680958EE
:100750000847E0201949096809580847E420174963
:10076000096809580847E8201449096809580847E2
:10077000EC201249096809580847F0200F49096818
:1007800009580847F4200D49096809580847F82016
:100790000A49096809580847FC20084909680958A6
:1007A00008475FF480700549096809580847000048
:1007B00003480449024A034B704700000000002030
:1007C000680900006809000040EA010310B59B07B2
:1007D0000FD1042A0DD310C808C9121F9C42F8D0AB
:1007E00020BA19BA884201D9012010BD4FF0FF305C
:1007F00010BD1AB1D30703D0521C07E0002010BD72
:1008000010F8013B11F8014B1B1B07D110F8013BFD
:1008100011F8014B1B1B01D1921EF1D1184610BDDE
:1008200002F0FF0343EA032242EA024200F005B865
:100830007047704770474FF000020429C0F01280E3
:1008400010F0030C00F01B80CCF1040CBCF1020F83
:1008500018BF00F8012BA8BF20F8022BA1EB0C0158
:1008600000F00DB85FEAC17C24BF00F8012B00F84E
:10087000012B48BF00F8012B70474FF0000200B574
:10088000134694469646203922BFA0E80C50A0E8B3
:100890000C50B1F12001BFF4F7AF090728BFA0E861
:1008A0000C5048BF0CC05DF804EB890028BF40F82D
:1008B000042B08BF704748BF20F8022B11F0804F6F
:1008C00018BF00F8012B7047014B1B68DB68184705
:1008D0000000002009480A497047FFF7FBFFFFF7B7
:1008E00011FC00BD20BFFDE7064B1847064A10600B
:1008F000016881F30888406800470000680900002B
:10090000680900001F030000000000201EF0040F13
:100910000CBFEFF30881EFF3098188690238007892
:10092000182803D100E00000074A1047074A126860
:100930002C3212681047000000B5054B1B68054AB1
:100940009B58984700BD00000703000000000020EE
:100950005809000004000000001000000000000022
:0809600000FFFFFF0090D0032F
:10100000180E002035870100A12F0000A7860100DF
:10101000A12F0000A12F0000A12F00000000000060
:101020000000000000000000000000008D870100AB
:10103000A12F000000000000A12F0000A12F000040
:10104000F5870100FB870100A12F0000A12F000000
:10105000A12F0000A12F0000A12F0000A12F000050
:1010600001880100A12F0000A12F000007880100C6
:10107000A12F00000D8801001388010019880100CC
:10108000A12F0000A12F0000A12F0000A12F000020
:10109000A12F0000A12F0000A12F0000A12F000010
:1010A000A12F00001F880100A12F0000A12F000028
:1010B000A12F0000A12F0000A12F0000A12F0000F0
:1010C00025880100A12F0000A12F0000A12F000002
:1010D000A12F0000A12F0000A12F0000A12F0000D0
:1010E000A12F0000A12F0000A12F0000A12F0000C0
:1010F000A12F0000A12F0000A12F0000A12F0000B0
:10110000A12F0000A12F000000F002F817F0FFFA55
:101110000AA090E8000C82448344AAF10107DA4552
:1011200001D117F0F4FAAFF2090EBAE80F0013F08C
:10113000010F18BFFB1A43F001031847F87A0100AA
:10114000187B01000A444FF0000C10F8013B13F02B
:10115000070408BF10F8014B1D1108BF10F8015B10
:10116000641E05D010F8016B641E01F8016BF9D103
:1011700013F0080F1EBF10F8014BAD1C0C1B09D15A
:101180006D1E58BF01F801CBFAD505E014F8016BCC
:1011900001F8016B6D1EF9D59142D6D3704700005E
:1011A0000023002400250026103A28BF78C1FBD870
:1011B000520728BF30C148BF0B6070471FB500F011
:1011C00031F88DE80F001FBD8269034981614FF03E
:1011D0000100104470470000DD11000001B41EB48E
:1011E00000B50FF05BF801B40198864601BC01B070
:1011F0001EBD0000F0B44046494652465B460FB45F
:1012000002A0013001B50648004700BF01BC864678
:101210000FBC8046894692469B46F0BC7047000052
:101220000911000017F070BA70B51B4C0546092073
:101230002070A01C00F061F85920A08029462046AB
:10124000BDE8704005F05ABD05F063BD70B50C46B1
:101250001249097829B1A0F16001562908D301206B
:1012600013E0602804D0692802D043F201000CE0AA
:1012700020CC0B4E94E80E0006EB8000A0F58050C9
:10128000241FD0F8806E2846B047206070BD012032
:10129000704706207047000008000020180000205A
:1012A0005488010010B504460021012000F033F8F5
:1012B00000210B2000F02FF80421192000F02BF85A
:1012C00004210D2000F027F804210E2000F023F85F
:1012D00004210F2000F01FF80421C84300F01BF880
:1012E0000621162000F017F80621152000F013F84B
:1012F0002046FFF799FF002010BD4FF6FE710180D8
:101300007047FFF7A1BF002070470B487047FFF7F9
:101310009DBF704770474907090E002806DA00F0A4
:101320000F0000F1E02080F8141D704700F1E0206C
:1013300080F800147047000003F9004270B50DF00A
:1013400065FC04460EF0F9FD201AC4B206200BF02D
:10135000FDFC054606200BF001FD2A1AF948C1786C
:10136000122909D0002100781144022806D000205B
:101370000844201AC0B270BD0121F4E70120F7E74C
:10138000F04810B5817900F10700490805D00AF04E
:101390009AFBBDE8104005F05ABB0AF075FBF8E770
:1013A00002210BF027BD2DE9FC411D4690460E465B
:1013B0000746FFF7F5FF04000AD02078222804D35F
:1013C000A07FC0F34010A84205D10820BDE8FC81F1
:1013D00043F20200FAE7ADF800703DB101208DF84C
:1013E00002008DF803608DF8048002E000208DF883
:1013F000020068460AF0F8FDA07F65F34510A0776B
:101400000020E3E730B50446A1F120000D460A288C
:101410004AD2DFE800F005070C1C2328353A3F4488
:10142000FFDF42E0207820283FD1FFDF3DE0C548C4
:101430000178032939D0C078132836D020782428A1
:1014400033D0252831D023282FD0FFDF2DE020787E
:1014500022282AD0232828D8FFDF26E02078222837
:1014600023D0FFDF21E0207822281ED024281CD0A2
:1014700026281AD0272818D0292816D0FFDF14E0F4
:101480002078252811D0FFDF0FE0207825280CD008
:10149000FFDF0AE02078252807D0FFDF05E020786D
:1014A000282802D0FFDF00E0FFDF257030BD1FB528
:1014B0000022ADF800200C88ADF802404B88ADF852
:1014C0000430CA88ADF808208988ADF806100021DC
:1014D000ADF80A10ADF80C1080B14FF6FF70062180
:1014E000844201D1ADF80210834201D1ADF804105D
:1014F000824203D14FF44860ADF8080068460AF014
:1015000043FC05F0A4FA04B010BD70B514460D46B6
:1015100006460FF043F960B90DB1A54201D90C2080
:1015200070BD002409E000BF56F824000FF036F922
:1015300008B1102070BD641CE4B2AC42F4D30020AA
:1015400070BDF0B50024059D10B1A94203D850E04C
:1015500009B90020F0BD0920F0BD055DD5B107191E
:1015600097F801C0BCF1150F2DD03BDCBCF1150F75
:1015700038D2DFE80CF037122020262628282F2F1B
:10158000373737373737373737372000025D22BBD9
:10159000641CE4B28C42F9D3DBE7022DDBD1BD78C9
:1015A0001D70072D01D26D0701D40A20F0BD1578FA
:1015B00045F0010515E0EF43FF0707E0012D07D0D7
:1015C00010E00620F0BD2F07A7F18057002FF5D0BF
:1015D0003046F0BD1578AF0701D50B20F0BD45F0C2
:1015E00002051570055D641C2C44E4B28C4202D9DE
:1015F000B1E74FF448568C42AFD3AAE710B5027852
:10160000540809D0012243F20223012C07D0022CF6
:101610000DD0032C13D10FE00020087005E0807975
:101620000324B4EB901F0AD10A70002010BD80790A
:10163000B2EB901F03D1F7E780798009F4D0184608
:1016400010BD404A117C39B1517C022908D00329D0
:1016500008D043F2022070470146901D01F0DFB828
:10166000032100E0012101700020704738B50C46CD
:101670000546694601F0D3F800280DD19DF8001009
:10168000207861F34700207055F8010FC4F801007D
:10169000A888A4F80500002038BD38B51378C0B17B
:1016A000022816D028A46D46246800944C7905EBD6
:1016B0009414247864F34703137003280ED003F0C6
:1016C000FE0010700868C2F801008888A2F80500C2
:1016D00038BD23F0FE0313700228EED1D8B240F0DB
:1016E0000100EEE738B50C460978222901D208201E
:1016F00038BDADF800008DF8022068460AF022FAE5
:1017000005F0A5F9050003D121212046FFF77AFE57
:10171000284638BD1CB500208DF80000CDF801002A
:10172000ADF805000748007C022801D0012000E048
:1017300000208DF8070068460AF072FA002800D0F1
:10174000FFDF1CBD940100200302FF012DE9FE43D1
:10175000040000D1FFDF207820F00F00801C20F073
:10176000F0007030207060680178FE4E091F162965
:101770002BD2DFE801F0FB2A2A2A4DFA2A0BFAFACB
:101780003AFB2A2AFB66FB2A2AFBFBF986883046AD
:10179000FFF706FE0546304609F0C3FDB8B16068A4
:1017A000807985F83E0021212846FFF72BFE304640
:1017B00006F0D9FB304603F0CFFC314602200EF094
:1017C000A1FFA87F20F01000A877BDE8FE83207855
:1017D00020F0F000203020700620207266806068C3
:1017E0008079607205F00BFBDDE785882846FFF7FE
:1017F000D7FD00B9FFDF60688078012800D0FFDFE7
:101800006068817903B02846BDE8F04309F0B9BEAD
:1018100086883046FFF7C4FD050000D1FFDF05F0E4
:10182000EEFA60683146C088288160680089688166
:1018300060684089A88102200EF064FF0020A8752E
:10184000C3E780783C2803D0002502280CD000E0B4
:101850000125002720B13C2802D0022800D0FFDF5C
:1018600027B1FFDFFFDFB0E70127F3E705F0C7FA95
:101870001DB1B07800F0B6FF8DE06568A879AD1CA9
:1018800000B9FFDF2879B5F80290012806D0307939
:10189000804605F07CF8070003D101E0B078F7E757
:1018A000FFDF0022022148460BF09BFA040000D122
:1018B000FFDF22212046FFF7A5FDA17F012060F375
:1018C0000101A177298B2181698B6181A98BA1817C
:1018D00084F822808DF8080002AA032148460BF004
:1018E00080FA00B9FFDFB888ADF80400B8788DF849
:1018F000060001AA052148460BF073FA00B9FFDF84
:10190000B888ADF80000F8788DF802006A46042126
:1019100048460BF066FA00B9FFDF062105F1120018
:1019200000F09AFF18B36879800700D5FFDF697966
:10193000E07D61F34700E075D5F80600A061688995
:10194000A083062105F10C0000F086FFC8B1B07934
:101950004108607861F347006070D6F80700C4F86A
:101960000200B6F80B0015E027E021E02CE0E07D56
:1019700020F0FE00801CE075D5F81200A061E88A16
:10198000DEE7607820F0FE00801C6070E868C4F834
:101990000200288AE0803078032800D0FFDF002191
:1019A00008460EF0AFFEBDE8FE43012000F006BF82
:1019B0002046BDE8FE4301F0E6BD05F020FAB07C0C
:1019C00040F00400B07400E7BDE8FE4305F017BA2C
:1019D0002DE9F047054600780C460027010991469D
:1019E0003E4601296ED000234FF6FF7002296AD0CF
:1019F00007290BD00A2967D0FFDF00BFA9F80060D4
:101A00000CB1278066800020BDE8F087D5F80480FF
:101A100004F10802924698F8001013292BD00ADC32
:101A200004F1180C042959D008290DD00F2919D018
:101A300012297CD181E014297AD0172909D01829DC
:101A400077D01929F5D1B2E012271026B8F8040092
:101A5000E4E01C270926A4B3B8F80200A080686857
:101A6000007927E11B2709265CB3032020726868F0
:101A70004088A080C2E798F802003C2828D01027B0
:101A8000182608F10208E4B198F8040000B9FFDF55
:101A9000B8F80200A080B8F818006082B8F8180002
:101AA0002082B8F81A00A082B8F81C00E08298F8EA
:101AB0000500524608F10601FFF7EFFD0120E07333
:101AC0009CE702E0A2E0ADE09AE0A9F800609AE7A6
:101AD0001B270926002CF8D023728FE71D273726F5
:101AE000002CF2D0A0806968481D0B790146184689
:101AF000FFF7D3FD686890F82B00A0756868C07880
:101B00000428E07D16D020F00100E07569681F22EE
:101B1000C97861F34200E0756968C97A61F3C7006A
:101B2000E075696860460C3116F0F0FC66E766E027
:101B300050E02BE040F00100E7E71D273726002C9E
:101B4000C3D0A0806968481D0B7901461846FFF78D
:101B5000A4FD696804F10F0201F10C00CB7A014683
:101B6000184601E094010020FFF797FD6868807C2B
:101B7000A0756868C178E07D61F3420020F0F9004B
:101B8000E0751F21604616F062FD37E7202710261A
:101B9000002C9AD0A080686804F10902407A207273
:101BA0006968CB1C88781946FFF777FD26E721275F
:101BB0000A26002C89D0B8F80200A0806868007955
:101BC0002072686840796072F848817C21F00401D5
:101BD000817413E722270B26002CB1D0B8F804003B
:101BE000A0806868807820726868807900F043FE81
:101BF00060726868C07900F03EFEA072FEE64A4658
:101C000021462846BDE8F04701F0F2BD287A0228B7
:101C100001D0FFDFF2E6122768881026214600F087
:101C200008FEEBE6297A072946D2DFE801F0343ACC
:101C30003A0404040500E2E711270926002CA8D085
:101C4000B5F802804046FFF7ABFB90F822A0A4F85D
:101C50000480687A2072042140460BF0DDF80521EB
:101C600040460BF0D9F8002140460BF0D5F8012191
:101C700040460BF0D1F8032140460BF0CDF802218D
:101C800040460BF0C9F8062140460BF0C5F8504617
:101C900000F0A8FDB2E61B270926002C8AD0A08000
:101CA0001AE71B270926002C84D0A080287A012857
:101CB00000D002202072A1E6FFDF9FE6BB4810B5EE
:101CC000C078122801D0082010BD002108460AF073
:101CD00037F804F0BCFE0028F6D1002106200EF0F3
:101CE00011FD112000F088FD002010BD10B5AF4C93
:101CF000207801280ED000200AF0AEF804F0A7FEEC
:101D0000002808D1002108460EF0FCFC20780328AA
:101D100002D004E0082010BDA07800F063FD01208F
:101D200000F04CFD002010BD70B5002538B1022830
:101D300017D0062835D0072800D0FFDF70BDFFF789
:101D4000D5FF0028FAD105F057F80028F6D0017821
:101D500021F00F01891C21F0F00120310170057282
:101D600037E08EB23046FFF71BFB040000D1FFDFE7
:101D700020782128E2D005F03FF860B1017821F009
:101D80000F01891C21F0F001103101700221017254
:101D90004680A5751DE021463046BDE870401322FF
:101DA000A0E48248C078122801D0FFDF70BDFFF7A1
:101DB00085FF0028FAD105F01FF80028F6D0017839
:101DC00021F00F01891C21F0F00120310170012167
:101DD0000172BDE8704005F012B82DE9F0411646D9
:101DE0000C00804600D1FFDF307820F00F00801C0F
:101DF00020F0F000103030702078022802D0FFDF91
:101E0000BDE8F0814046FFF7CBFA050000D1FFDFC7
:101E100061884FF6FF700027814202D1A28882427A
:101E200003D0814201D1A08848B104F0E8FF2068C6
:101E3000B0606068F06020893082AF75E0E7A87D0F
:101E40000128DDD178230022414602200EF0B0FBAC
:101E50000220A875D4E738B505460C4608460EF0B2
:101E60009DFC70B9203D072D37D2DFE805F0040650
:101E70002328362E1C00062038BD60680EF0D2FCE8
:101E800008B1102038BD618820886A460AF0EAF857
:101E900004F0DDFD0028F5D161680029F2D0BDF81D
:101EA00000200A8038BDA07800F0010120880AF0E7
:101EB0000AF90EE02068BDE8384001F0CEBE207877
:101EC00000F001000AF06CF903E0618820880AF054
:101ED0006DF8BDE8384004F0BABD072038BD70B5D4
:101EE00005460C4608460EF07FFC08B1102070BD78
:101EF000203D072D1BD2DFE805F0041818181A1A28
:101F000018002088FFF74CFA20B10078222804D26C
:101F1000082070BD43F2020070BD2088A11C09F0AA
:101F200065FEBDE8704004F092BD062070BD07203C
:101F300070BD1E48801D704738B516211B4816F02D
:101F400064FB012000F03AFC112000F055FC174C16
:101F50006846E11D04F0E6FE9DF80010A07961F3EB
:101F6000470020F00100A071002020744FF4617040
:101F7000E08102206074FFF703FA00B1FFDF00F098
:101F800085FC01F0D3FA38BD10B50C46402120463F
:101F900016F03BFBA07F20F00300A07720202070EC
:101FA0000020A07584F8230010BD000094010020DB
:101FB00070477CB505460EF0F1FB08B110207CBDE2
:101FC000F74CA11DD4F806000090D4F80A00019047
:101FD0002846FFF74BFB0028F1D1FFF7D1F9002885
:101FE000EDD00099C4F80610BDF8041061819DF889
:101FF000061021737CBD10B504460EF0F5FB08B148
:102000001020D1E7E64922468879C91D4008FFF72C
:1020100044FB0020C8E7FEB50D4604004FF0000762
:1020200011D00822FFF771FA002811D1002608E02C
:1020300054F826006946FFF7E1FA002808D1761C1B
:10204000F6B2AE42F4D309F089FC10B143F203209A
:10205000FEBDD34E7771FCB100271AE054F827007B
:1020600002A9FFF7CBFA00B1FFDF9DF808008DF859
:10207000000054F8270050F8011FCDF801108088A7
:10208000ADF80500684609F08EFC00B1FFDF7F1C4B
:10209000FFB2AF42E2D375710020FEBD2DE9F047DB
:1020A0008AB01546894604001DD00F4608222946ED
:1020B000FFF72BFA002810D1002612E054F8260072
:1020C0006946103000F0ABFB002806D13FB157F84D
:1020D00026000EF063FB10B110200AB094E4761CC9
:1020E000F6B2AE42EAD30026A5F101081CE000BF1B
:1020F00006F1010A0AF0FF0712E000BF54F82600BB
:10210000017C4A0854F827100B7CB2EB530F05D121
:1021100006221130113116F0CDF958B17F1CFFB2F3
:10212000AF42EBD30AF0FF064645E1DB4E4624B151
:10213000012003E043F20520CFE7002009F053FC23
:1021400010B909F05CFC10B143F20420C5E75CB3A0
:1021500000270DF1170825E054F8270069461030D4
:1021600000F05DFB00B1FFDF54F82700102250F8AB
:10217000111FCDF801108088ADF8050054F8271024
:102180000DF1070016F0C2F996B156F8271010228B
:10219000404616F0BBF9684609F0EAFB00B1FFDFE4
:1021A0007F1CFFB2AF42D7D3FFF7B4FA002094E709
:1021B000404601F046FDEEE730B585B004460EF02E
:1021C000EDFA18B960680EF036FB10B1102005B0BA
:1021D00030BD60884AF2B811884206D82078704D28
:1021E00028B1012806D0022804D00720EFE7FFF726
:1021F000C7F817E06078022804D0032802D043F221
:102200000220E4E76874C1B200200090ADF8040039
:1022100002292BD0032926D0FFDF684609F053FCA2
:1022200004F015FC0028D2D1606801F0FDFC207894
:1022300058B101208DF800000DF1010001F001FD01
:10224000684609F097FF00B1FFDF20782874FFF798
:1022500061FA608860B1E88180B209F0BCFB00B12E
:10226000FFDF0020B3E78DF80500D6E74020FAE74E
:102270004FF46170EFE710B504460EF0B5FA20B9DF
:10228000606838B10EF0CEFA08B110208CE66068B4
:1022900001F0D7FC4248C1896180417C6170007CBB
:1022A0002070002080E62DE9F04186B00546002030
:1022B0008DF80C008DF804008DF808008DF81000E2
:1022C0001E461446884628460EF0B5FA18B9204630
:1022D0000EF0B1FA10B1102006B091E555EA0400F5
:1022E00018D01F2702AB03AA414628460097FFF7E4
:1022F00028F90028F0D104AB01AA31462046009706
:10230000FFF71FF90028E7D19DF80400C00703D0AC
:102310000A20E1E70720DFE73DB12946404609F002
:1023200089FD04F094FB0028D6D13CB1214630460B
:1023300009F089FD04F08BFB0028CDD118499DF8E8
:10234000080048700020C7E72DE9F04387B08846B1
:102350004FF0000913A104468DF81090D1E9000157
:10236000CDE9050120460EF019FA80B92078012840
:1023700003D160680EF012FA48B9094D287C50B1BB
:10238000687C022807D160680EF055FA18B1102059
:1023900007B0BDE8F0832878012807D00820F7E7C8
:1023A00094010020070605040302010006200AF03C
:1023B000D5FC20B9207800287ED001287CD0FEF7FB
:1023C000BDFF50B1608943F6E172A0F12001914256
:1023D000217809D3012902D081E01320D8E7002811
:1023E0007DD1A189A1BB08E0012906D06978C90780
:1023F00003D0A18961B3B42971D8217831B1012901
:1024000008D0022904D0032969D10AE0002609E096
:10241000022607E008B9A08908B1042609E00126D0
:1024200007E00326287C50B1687C022807D1606849
:1024300028B104A96068FFF7E1F80028A8D1207A44
:1024400038B1012807D0022807D0032847D106E079
:1024500033E0002704E0012702E0022700E0032721
:102460000EB1022E0ED16FB1687930B36878800753
:1024700002D043F201208BE7022E03D1022F2ED08F
:10248000032F2CD0207808B101280AD1404604F04F
:102490007EFA90B1407878B1404604F054FD85F85A
:1024A00002806089ADF800006089ADF802008DF807
:1024B00004600DF1050001E013E010E0FFF7C1F842
:1024C00000B1FFDF9DF810008DF80600207801288C
:1024D0000BD0287C80B1687C022804D00CE0072057
:1024E00056E7122054E7606830B1606850F8011F69
:1024F000CDF80710808802E04846CDF80790ADF887
:102500000B008DF80E70A07BC0F34002014662F311
:102510005F01C0F3800041EA800005A9085C8DF8E6
:102520000D000028DBD0684609F053FC04F08FFA58
:102530000028A0D1012009F08FFC04F088FA0028BF
:1025400099D1052E14D2DFE806F003032020030002
:10255000A87804F01CFA050000D1FFDF687800B904
:10256000FFDF6878401E68705FF0030000F026F916
:10257000012E0CD0A08950B10022830011461046D4
:102580000EF016F818B1032002E70220EEE7002053
:10259000FEE62DE9FC4180460D46032608460EF076
:1025A0004AF910B11020BDE8FC814046FEF7F8FE64
:1025B000040004D02078222804D20820F3E743F254
:1025C0000200F0E7A07F00F003073DB1012F0AD021
:1025D00000202946FEF76BFF0600E4D1012F04D04E
:1025E000FFDF3046DFE70120F3E7A07D2946022820
:1025F00001D011B107E01120D5E7684600F053FA89
:102600000028D0D16946404608F09BFF0600E8D17B
:102610000120A075E5E770B50C460546FEF7C0FE43
:10262000010005D022462846BDE87040FFF75AB8A1
:1026300043F2020070BD10B509F0FFF9BDE810408B
:1026400004F005BA0123FEF7AEBE00231A46194670
:10265000FEF7A9BE7CB504460EF0A0F808B1102024
:102660007CBD628843F6FD73111F07209942F7D2A3
:10267000A1880429F4D3B1F5804FF1D89142EFD865
:10268000814DE878112801D008207CBDFEF756FE68
:10269000C0B32078810701D56979A1B300F00100AA
:1026A0008DF800006088ADF80200A088ADF8040045
:1026B00020780222C0F3400102EA500001438DF865
:1026C00007100DF10600FEF7BCFF00B1FFDF684602
:1026D00009F0FAFA04F0BBF90028D6D10021012054
:1026E00009F02EFB04F0B3F90500CED1E08878B1F3
:1026F00083000022114606200DF05AFF062807D05D
:1027000003207CBD00E001E01320FAE70720F8E792
:10271000122000F071F82846F3E770B505460C4624
:1027200008460EF061F808B1102070BD2846FEF78B
:1027300037FE38B10178222902D3807F800604D485
:10274000082070BD43F2020070BD2146284609F002
:1027500075FCBDE8704004F07AB938B505460C4602
:1027600008460EF01BF808B1102038BD2846FEF7C9
:1027700017FE20B10078222804D2082038BD43F289
:10278000020038BD4048807C400701D5112038BD8B
:102790002078800802D16078800801D0072038BDF9
:1027A000ADF8005020788DF8020060788DF80300B5
:1027B000684609F07AFA04F04AF938BD30B5324D6E
:1027C000040008D0012C04D0022C06D0032C04D025
:1027D000FFDF2C7030BDFFDFFBE728780128F8D041
:1027E000FFDFF6E710B504F0D2F8040000D1FFDFF8
:1027F0006078401C607004E430B5234D0446102816
:1028000006D0112C02D0122C04D0FFDFEC7030BDAA
:10281000FFDFFBE7E8781128F8D0FFDFF6E7027862
:10282000520804D0012A02D043F202207047FEF77A
:10283000E5BE70B50C0006460DD0FEF7B1FD0500F3
:1028400000D1FFDFA68028892081288960816889DE
:10285000A081A889E08170BD10B500231A4603E06D
:10286000845C2343521CD2B28A42F9D30BB10020BC
:102870000CE501200AE500B5012803D0022801D0AB
:10288000FFDF002000BD000094010020FE48002171
:1028900001604160018170472DE9F743044692B021
:1028A000914640680DF0BEFF40B160680DF0C3FF77
:1028B00020B9607800F00300022801D0012000E078
:1028C0000020F14E307248460DF068FF18B110201C
:1028D00015B0BDE8F08349460120FEF7E8FD002869
:1028E000F6D101258DF842504FF4C050ADF84000AC
:1028F000002210A9284602F0F7FE0028E8D18DF842
:1029000042504FF428504FF00008ADF840004746C1
:102910001C216846CDF81C8015F099FE9DF81C001E
:1029200008AA20F00F00401C20F0F00010308DF8B5
:102930001C0020788DF81D0061789DF81E0061F361
:10294000420040F001008DF81E009DF800000AA929
:1029500040F002008DF800002089ADF83000ADF89D
:102960003270608907AFADF834000B97606810AC27
:102970000E900A94684602F0ACFC0028A8D1BDF87D
:10298000200030808DF8425042F60120ADF8400022
:102990009DF81E0008AA20F00600801C20F001000F
:1029A0008DF81E000220ADF83000ADF8340013A8F9
:1029B0000E900AA9684602F08CFC002888D1BDF868
:1029C00020007080311D484600F033F9002887D17F
:1029D0008DF8425042F6A620ADF840001C21684612
:1029E000CDF81C8015F033FE9DF81C00ADF8345076
:1029F00020F00F00401C20F0F00010308DF81C007B
:102A00009DF81D0008AA20F0FF008DF81D009DF81C
:102A10001E000AA920F0060040F00100801C8DF87D
:102A20001E009DF800008DF8445040F002008DF823
:102A30000000CDE90A4711A80E90ADF83050684665
:102A400002F047FC002899D1BDF82000F08000205A
:102A50003EE73EB504460820ADF8000020460DF0E4
:102A60009DFE08B110203EBD21460120FEF71FFD4E
:102A70000028F8D12088ADF804006088ADF8060081
:102A8000A088ADF80800E088ADF80A007E4801ABE8
:102A90006A468088002103F021F8BDF8001008295B
:102AA000E1D003203EBD1FB504460020029008205F
:102AB000ADF80800CDF80CD020460DF06FFE10B137
:102AC000102004B010BD704802AA81884FF6FF7034
:102AD00003F04BFA0028F4D1BDF80810082901D002
:102AE0000320EEE7BDF800102180BDF802106180E0
:102AF000BDF80410A180BDF80610E180E1E701B542
:102B000082B00220ADF800005F4802AB6A46408800
:102B1000002102F0E3FFBDF80010022900D00320DD
:102B20000EBD1CB5002100910221ADF800100190EE
:102B30000DF05AFE08B110201CBD53486A4641886A
:102B40004FF6FF7003F011FABDF800100229F3D020
:102B500003201CBDFEB54C4C06461546207A0F4698
:102B6000C00705D008460DF019FE18B11020FEBDB3
:102B70000F20FEBDF82D01D90C20FEBD30460DF012
:102B80000DFE18BB208801A902F0E9F80028F4D155
:102B900030788DF80500208801A902F07EFF00281A
:102BA000EBD100909DF800009DF8051040F0020068
:102BB0008DF80000090703D040F008008DF80000F0
:102BC0002088694602F006FF0028D6D1ADF80850EB
:102BD00020883B4602AA002102F080FFBDF80810C1
:102BE000A942CAD00320FEBD7CB505460020009056
:102BF00001900888ADF800000C46284601950DF0BC
:102C000011FE18B920460DF0EFFD08B110207CBD73
:102C100015B1BDF8000050B11B486A4601884FF657
:102C2000FF7003F0A2F9BDF8001021807CBD0C20DC
:102C30007CBD30B593B0044600200D4600901421B1
:102C400001A815F004FD1C2108A815F000FD9DF851
:102C50000000CDF808D020F00F00401C20F0F0005C
:102C600010308DF800009DF8010020F0FF008DF875
:102C700001009DF8200040F002008DF820000120A6
:102C80008DF8460002E00000AA01002042F6042070
:102C9000ADF8440011A801902088ADF83C00608890
:102CA000ADF83E00A088ADF84000E088ADF84200E5
:102CB0009DF8020006AA20F00600801C20F001000A
:102CC0008DF802000820ADF80C00ADF810000FA838
:102CD000059001A908A802F0FCFA002803D1BDF86C
:102CE00018002880002013B030BD00004FF0E02213
:102CF0004FF400410020C2F880111D4908701D49A1
:102D000090020860704770B5194D04462878A042BB
:102D100002D00CB100B1FFDF2878A0420DD01649D7
:102D2000144A2C700020CCB1134E144B1436151FCE
:102D3000012C03D0022C08D0FFDF70BD08600220F8
:102D4000086033604FF0407005E0086003200860C1
:102D500033604FF400001060286070BD08600860A8
:102D60004FF06070106070BD00B5FFDF00BD000067
:102D70001400002008F5014000F500402802002062
:102D80000CF031BE0449002008604FF0E021022021
:102D9000C1F8800270470000FC1F004010B50D20F4
:102DA00000F067F8C4B26FF0040000F062F8C0B23F
:102DB000844200D0FFDF36490120086010BD70B5A5
:102DC0000D2000F040F8334C0020C4F8000101252C
:102DD000C4F804530D2000F041F825604FF0E021C5
:102DE0006014C1F8000170BD10B50D2000F02BF883
:102DF0002848012141600021C0F80011BDE81040C1
:102E00000D2000F02BB8234910B5D1F8000101289E
:102E100001D0FFDF10BD1E48001D00680022C0B2B7
:102E2000C1F80021BDE810400DF0B2B910B5194845
:102E3000D0F800110029FBD0FFF7E5FFBDE81040F6
:102E40000D2000F00BB800F01F0201219140400955
:102E5000800000F1E020C0F88011704700F01F02F0
:102E6000012191404009800000F1E020C0F880126B
:102E70007047002806DA00F00F0000F1E02090F81B
:102E8000140D03E000F1E02090F8000440097047C1
:102E900004D5004000D0004070477047704770472D
:102EA00070477047704700004FF0E0214FF000700E
:102EB000C1F88001C1F88002334B802283F80024DE
:102EC000C1F80001704700B5024604202F4903E015
:102ED00001EBC0031B792BB1401EC0B2F8D2FFDF5B
:102EE000FF2000BD41F8302001EBC00100224A71F3
:102EF0008A7101220A7100BD244A002102EBC00040
:102F00000171704710B50446042800D3FFDF1F4845
:102F100000EBC4042079012800D0FFDF6079A1799B
:102F2000401CC0B2814200D060714FF0E0214FF0F0
:102F30000070C1F8000210BD70B51348042590F868
:102F40000004124E4009124C042818D0FFDF16E08E
:102F5000217806EBC1000279012A08D142798379F0
:102F60009A4204D04279827156F831008047207825
:102F7000401CC0B22070042801D3002020706D1EB8
:102F8000EDB2E5D270BD000019E000E08004002041
:102F9000480000200F4A12680D498A420CD1184798
:102FA0000C4A12680A4B9A4206D101B50DF06AF933
:102FB000FFF774FFBDE80140074909680958084751
:102FC00006480749054A064B70470000000000000C
:102FD000BEBAFECAA400002004000020180E002083
:102FE000180E002070B50C46054606F087FA2146FB
:102FF0002846BDE8704007F06ABB704770477047CD
:103000002CFFFFFFDBE5B15100900100FEFFFFFF49
:1030100070000000284F4C00280A743AC34F6DE737
:10302000EB4231A20B41E942B8B1547810B50446E5
:103030000DF0B4FB08B1102010BD2078C0F30210D1
:10304000042807D86078072804D3A178102901D86C
:10305000814201D2072010BDE078410706D42179D2
:103060004A0703D4000701D4080701D5062010BD84
:10307000002010BD70B514460D46064603F0BCFE98
:1030800080B10178182221F00F01891C21F0F00194
:10309000A03100F8081B214615F07DFABDE870400C
:1030A00003F0ADBE29463046BDE870401322FEF75E
:1030B00019BB2DE9F047064608A8894690E8300478
:1030C0001F4690461421284615F0C1FA0021CAF87F
:1030D0000010B8F1000F03D0B9F1000F03D114E0D4
:1030E0003878C00711D020680DF07EFBC0BBB8F166
:1030F000000F07D120681230286020681430686003
:103100002068A8602168CAF800103878800724D5A4
:1031100060680DF087FB18BBB9F1000F21D0FEF7F6
:1031200008FF0168C6F868118188A6F86C118079DB
:1031300086F86E0101F02FFAF74FEF60626862B116
:1031400096F8680106F2691140081032FEF7A5FAF8
:1031500010223946606815F0D9F90020BDE8F087E3
:1031600006E0606820B1E8606068C6F86401F4E7D2
:103170001020F3E730B5054608780C4620F00F0024
:10318000401C20F0F001103121700020607095F893
:10319000230030B104280FD0052811D0062814D000
:1031A000FFDF20780121B1EB101F04D295F8200039
:1031B00000F01F00607030BD21F0F000203002E010
:1031C00021F0F00030302070EBE721F0F0004030CB
:1031D000F9E7F0B591B0022715460C4606463A4687
:1031E000ADF80870082103AB07F0A0FF0490002899
:1031F00010D004208DF804008DF80170E034099699
:1032000005948DF818500AA968460BF0E5FA00B14C
:10321000FFDF012011B0F0BD2DE9F84F0646808A8E
:103220000C4680B28246FEF7BBF80546BA4F3078AE
:10323000203F4FF005094FF000080F287CD2DFE84F
:1032400000F07BA39D082C5B6A7CBADAFC97489758
:1032500097000121504609F0CDFD040000D1FFDFA9
:1032600097F85C00C00701D0386E0BE0032104F131
:103270001D000CF06EFFD4F81D00A849B0FBF1F260
:1032800001FB1200C4F81D0070686067B068A06799
:103290002878252872D0FFDF70E00121504609F020
:1032A000A9FD060000D1FFDF3078810702D529781B
:1032B000252904D040F001003070BDE8F88F0220CD
:1032C0002070307F207106F11D002D36C4E9020602
:1032D000F3E70121504609F08DFD050000D1FFDF25
:1032E0002878C10604D5072020703D356560E4E7E5
:1032F00040F008002870E0E7E87FC00600D5FFDF57
:10330000307CB28800F0010301B05046BDE8F04FB8
:10331000082108F041B805B9FFDF716821B110221A
:1033200005F1240015F0F2F828212846FEF76AF886
:10333000307A85F82000C0E7F6E00121504609F018
:1033400059FD050000D1FFDF022105F185000CF0D9
:1033500000FF0420207005F5B4706060B5F88500AA
:1033600020826D4810387C356561C4E90270A4E79D
:103370000121504609F03EFD00B9FFDF32462946E3
:103380005046BDE8F84F75E605B9FFDF28782128DB
:1033900093D93079012803D1E87F40F01000E87715
:1033A000324629465046FFF765FE2846BDE8F84FED
:1033B0002321FEF727B83279A28004F108030821FF
:1033C000504607F0B3FEE06010B184F8009074E757
:1033D00045460121504609F00DFD040000D1FFDFF4
:1033E00004F1620102231022081F09F0A8FB0570F6
:1033F0003179417061E70121504609F0FBFC04007E
:1034000000D1FFDF94F8840000F00300012857D1B9
:10341000E87FC0F340021AB994F8A000C00729D091
:10342000D4F8601129B394F88330087C63F38700E3
:103430000874EB7F63F3410000E071E0D4F86011A1
:103440000874D4F8601162F30000087492B1D4F8E3
:103450006001102205F12401883415F057F8207E10
:1034600040F001002076207820F0010004F888095F
:1034700018E0BAB994F88800C00713D0D4F85C11EA
:1034800081B194F88330087C63F387000874EB7F84
:10349000D4F85C1163F341000874D4F85C1162F352
:1034A0000000087494F88800800709D594F87C001F
:1034B000D4F86421400804F17D011032FEF7EDF8E4
:1034C0008DF8009094F884006A4600F003008DF8AF
:1034D000010094F888108DF8021094F8A0008DF87F
:1034E00003002946504601F03FF82878252805D0EA
:1034F000212807D0FFDF2878222803D92221284657
:10350000FDF780FF0121504609F086FC00283FF4BA
:10351000DFAEFFDFD1E60000D401002040420F0003
:10352000716881F80180C8E6FFDFC6E670B5FD4C22
:10353000002584F85C5025660BF01BF904F110019E
:10354000204603F015FC84F8305070BD70B50D4670
:10355000FDF726FF040000D1FFDF4FF4B8712846C5
:1035600015F075F82434012105F1E0002C610BF011
:1035700001F9002800D0FFDF70BD0A46014602F1C4
:10358000E0000BF017B970B50546406886B00178C9
:10359000092906D00C2933D00D292FD0FFDF06B022
:1035A00070BD46883046FDF7FBFE040000D1FFDF0A
:1035B00020782128F3D028281BD1686802210C30FC
:1035C00000F09DFFA8B168680821001D00F097FF7A
:1035D00078B104F12401304608F0ADFC03F037FA6D
:1035E00000B1FFDF06B02046BDE870402921FDF79D
:1035F00009BF06B0BDE8704003F001BC0121817134
:10360000686886883046FDF7CBFE040000D1FFDFF6
:1036100020782128C3D06868817909B1807808B101
:10362000FFDFBCE703F0EBFBE07FC10721D08007A1
:1036300005D594F8200000F01F00102817D00520B1
:1036400084F823002078292815D02428A7D13146D2
:1036500005200DF057F822212046FDF7D3FE012169
:10366000304609F0D9FB002899D0FFDF97E7062004
:10367000E6E70420E4E70121304609F0BBFB050042
:1036800000D1FFDF25212046FDF7BCFE03208DF889
:103690000000694605F1E0000BF083F80228C0D075
:1036A0000028BED0FFDF7AE72DE9F04788B09A46C0
:1036B000164688468146FDF773FE05003AD0287805
:1036C000222837D3232835D0E87FC00632D40027FC
:1036D0000121484609F08EFB040005D1012100229A
:1036E000484609F07EFB0446694600F064FF0098F6
:1036F00000B9FFDF00983CB1E0340461287822284B
:1037000004D0242802D005E0076103E025212846E3
:10371000FDF778FE009801214170C0F82490868062
:10372000C0E9028A01A90BF057F8022802D000284C
:1037300000D0FFDF08B011E570B586B00546FDF793
:103740002FFE0078222814D90121284609F052FBC7
:1037500004002CD1FFDF2AE0B4F85E0004F1620619
:1037600030440178427829B121462846FFF731FDDF
:10377000B0B914E7ADF804200821284602AB07F0E1
:10378000D5FC03900028F4D005208DF80000694690
:1037900004F1E0000BF005F8022801D000B1FFDFD2
:1037A00002231022314604F15E0009F0FEF9B4F85C
:1037B00060000028D0D1F2E610B586B00446FDF7CF
:1037C000EFFD0078222811D90121204609F012FBD3
:1037D000040000D1FFDF06208DF80000694604F1E7
:1037E000E0000AF0DEFF002800D0FFDF06B010BDC9
:1037F0002DE9F84F054600780C460027010904F131
:10380000080090463E46BA46009002297ED007291D
:1038100002D00A2909D142E068680178092905D057
:103820000C292CD00D292AD0FFDF73E114271C2688
:10383000002C6CD04088A080FDF7B2FD5FEA000943
:1038400000D1FFDF99F8170009F118014008009A2C
:10385000FDF723FF68688089208269684868C4F89A
:1038600012008868C4F81600A07E20F0060040F020
:103870000100A07699F81E0040F040014FE01A27A1
:103880000A26002CD5D08088A080FDF789FD050090
:1038900000D1FFDF28460099FFF76CFC3AE10CB13C
:1038A000A88BA080287A4FF0010B0B287ED006DC75
:1038B00001287CD0022808D0032804D137E00D2845
:1038C00076D00E2875D0FFDF24E11E270926002CB4
:1038D000AFD0A088FDF764FD5FEA000900D1FFDFEB
:1038E000287B00F003000128207A1DD020F0010081
:1038F0002072297B890861F341002072297BC90865
:1039000061F382002072297B090901E0F7E0AEE053
:1039100061F3C300207299F81E0040F0800189F81D
:103920001E10F7E0B401002040F00100E0E713278B
:103930000D26002CA6D0A088FDF732FD814601217E
:10394000A08809F057FA050000D1FFDF686F817881
:1039500001F003010129217A50D021F001012172E7
:1039600083789B0863F3410121728378DB0863F35A
:103970008201217283781B0963F3C30121720378EA
:1039800063F306112172437863F3C711217284F83F
:1039900009A0C178A1720279E17A62F30001E172B3
:1039A0000279520862F34101E17203E029E067E025
:1039B0004EE05FE00279920862F38201E1720279DF
:1039C000D20862F3C301E1724279217B62F3000104
:1039D00021734279520862F34101217342799208BE
:1039E00062F3820121734079C00860F3C30121733F
:1039F00099F8000023282AD9262139E041F0010155
:103A0000ADE71827102694B3A088FDF7C9FC0090F5
:103A10000121A08809F0EEF95FEA000900D1FFDF7B
:103A2000E868A06099F8000040F0040189F80010EF
:103A300099F80100800708D584F80CB00098007848
:103A4000232867D92721009852E084F80CA061E070
:103A500015270F265CB1A088FDF7A2FC814606223F
:103A6000E868009907F0E8FA84F80EB086E042E0D2
:103A700048463DE016270926ECB3287B207249E032
:103A8000287B19270E26B4B3C4F808A0A4F80CA00C
:103A9000012807D0022808D003280CD004280AD017
:103AA000FFDF15E084F808B001E002202072607AA0
:103AB00020F003000BE0697B042801F00F0141F0C6
:103AC00080012172F3D1607A20F00300401C607203
:103AD000A088FDF765FC0546007821281AD0232828
:103AE00000D0FFDF0121A08809F096F922212846A5
:103AF000FDF788FC0EE0FFE7A8F800600FE00CB1CE
:103B00006888A080287A032822D0042809D00528B4
:103B10003AD0FFDFA8F800600CB127806680002053
:103B200009E415270F26002CE6D0A088FDF738FC05
:103B30000121A08809F05EF9050000D1FFDFD5F86A
:103B40001D000622009907F077FA84F80EA0E1E73D
:103B500017270926002CCFD0A088FDF721FC81462D
:103B60000121A08809F046F9050000D1FFDF68783F
:103B7000800701D5022000E00120207299F80000A2
:103B80002328C7D9272173E719270E26002CB3D085
:103B9000A088FDF705FC5FEA000900D1FFDFC4F84B
:103BA00008A0A4F80CA084F808A0A07A40F00300B4
:103BB000A07299F81F1061F38200A07299F81F108B
:103BC000C1F34002114205D099F8201001F01F0105
:103BD000102926D020F00800A07299F81F00410893
:103BE000607A61F3C3006072697A01F00301012910
:103BF00090D140F004006072E97A207B61F300000C
:103C00002073AA7A617B62F300016173EA7A520839
:103C100062F341002073A87A400860F341016173A8
:103C200078E740F00800D7E710B5F94C30B101460D
:103C3000102204F1200014F069FC012084F8300007
:103C400010BD10B5044600F0A6FCF1492046102234
:103C5000BDE81040203114F059BC70B5EC4D0600A1
:103C60004FF0000412D00CF099FD08B110240BE0C5
:103C70000621304607F0C7F9411C04D02866012010
:103C800085F85C0000E00724204670BD0020F7E7BF
:103C9000007810F00F0204D0012A05D0022A0CD1BE
:103CA00010E0000909D10AE00009012807D0022824
:103CB00005D0032803D0042801D0072070470870DE
:103CC000002070470620704705282AD2DFE800F060
:103CD00003070F171F00087820F0FF001EE0087888
:103CE00020F00F00401C20F0F000103016E00878A3
:103CF00020F00F00401C20F0F00020300EE008788B
:103D000020F00F00401C20F0F000303006E0087872
:103D100020F00F00401C20F0F00040300870002020
:103D20007047072070472DE9F043804687B00D4665
:103D30004FF0000908460CF07EFDA8B94046FDF79B
:103D40002FFB060003D0307822280BD104E043F289
:103D5000020007B0BDE8F08335B1B07FC10601D4E1
:103D6000000703D50820F4E71020F2E7F07FC00633
:103D700001D50D20EDE700270121404609F03AF872
:103D8000040006D101210022404609F02AF804006F
:103D900005D0694600F00FFC009818B901E0042036
:103DA000D7E7FFDF00980221E0344170C0F824809B
:103DB0004461078101210171297801F00102017E2E
:103DC00062F3010101762A78520862F382010176DA
:103DD0002A78920862F3C30101762A78D20862F346
:103DE0000411017624213046FDF70CFB01A900984F
:103DF0000AF0F2FC022801D000B1FFDF4846A8E734
:103E00002DE9FF4F9046834A0D4699B09A4607CA5E
:103E100015AB4FF0000983E807001998FDF7C0FAC9
:103E2000060006D03078262806D008201DB0BDE850
:103E3000F08F43F20200F9E725B94046FFF7F6F8A4
:103E40000028F3D10121199808F0D4FF040000D113
:103E5000FFDF852D27D007DCEDB1812D1DD0822D10
:103E60001DD0832D08D11CE0862D1ED0882D1ED09C
:103E7000892D1ED08A2D1ED00F2020710F281CD016
:103E800002F0BAFFD8B101208DF82800201D0B9058
:103E90002079B0B12EE10020EFE70120EDE702200C
:103EA000EBE70320E9E70520E7E70620E5E7082040
:103EB000E3E70920E1E70A20DFE70720B6E7112062
:103EC000B4E798F80000D4E91D754208F07F00219E
:103ED00062F30000F07798F80020920862F3410046
:103EE000F07798F80000C209607862F341006070D2
:103EF00098F800000209207862F34710207098F8C3
:103F00000000C208607862F30000607098F8010059
:103F1000607198F8000000F00102A87862F30100D7
:103F2000A870F27F62F38200A870F27F520862F3F9
:103F3000C300A870627862F30410A8702278C0F3FE
:103F4000C00052092A706278C2F340026A7098F881
:103F50000220EA7069712971B978C1F3C001084083
:103F60005FEA000B2ED050460CF018FC98BBDAF834
:103F70000C000CF013FC70BBDAF81C000CF00EFC0B
:103F800048BBDAF80C00A060DAF81C00E060797831
:103F9000607801F0010140EA41006070B978C0B278
:103FA000C1F30011891E084060700020207706F1DF
:103FB00017006061701CA061A87800F00300012860
:103FC0000AD049E07978607801F00101FD2242EAE7
:103FD00041010840E1E719E0B87800F0030001284A
:103FE0003AD12A1D691D404600F094FA28793979A2
:103FF00008408DF84C0069797A7911408DF81810D5
:10400000084329D050460CF0C9FB28B110200DE719
:10401000B4010020A88901000AF1100004F5AE7374
:1040200004F18C028DE80D00002113AB5A462046A6
:10403000FFF73FF80028EAD104F5B07204F1A403B9
:10404000CDF800A0CDE90132012106AB5A46204649
:10405000FFF72FF80028DAD16078800722D4A878FB
:10406000B978C0F38000C1F3800108431AD02978E1
:1040700015AA387832F811204300DA4002F003091B
:10408000B9F1030F01D14FF00209BBF1000F09D0C4
:10409000012901D0042905D1012801D0042801D12A
:1040A0004FF00409F07F40F001006BF34100F0771E
:1040B000607881074FF003000CD5A071BBF1000FB1
:1040C00018D100BF8DF8500014AA3146199800F09D
:1040D0004BFA0FE00221B9F1020F1AD0B9F1010F2A
:1040E00019D0B9F1040F22D00020A071F07F20F088
:1040F0000100F07725213046FDF784F90AA904F183
:10410000E0000AF04EFB10B1022800D0FFDF0020D3
:104110008CE6A171D6E7A1710D2104F1200014F005
:1041200096FA207840F0020020700420CAE70120AF
:10413000A071DFE72DE9F04387B090468946044639
:104140000025FDF72DF9070004D03878272804D082
:104150000820FEE543F20200FBE50121204608F0BD
:1041600049FE040000D1FFDFA6795FEA090005D00F
:10417000012821D0B9F1020F26D110E0B8F1000FCB
:1041800022D1012E05D0022E05D0032E05D0FFDF4F
:104190002DE00C252BE0012529E0022527E04046F3
:1041A0000CF0FCFAB0B9032E0ED11022414604F1F6
:1041B0001D0014F0ABF91AE0012E02D0022E03D13B
:1041C00004E0B8F1000F12D00720C2E540460CF021
:1041D000E5FA08B11020BCE5102104F11D0014F02F
:1041E00014FA0621404606F00EFFC4F81D002078A0
:1041F000252140F0020020703846FDF703F92078B1
:10420000C10713D020F00100207002208DF80000BB
:1042100004F11D0002908DF804506946C3300AF085
:10422000C0FA022803D010B1FFDF00E0257700209C
:104230008FE530B587B00D460446FDF7B1F860B1A3
:104240000121204608F0D6FD04000CD028460CF0D1
:10425000A5FA28B1102007B030BD43F20200FAE7FA
:104260002078400701D40820F5E7294604F13D00F5
:104270002022054614F04AF9207840F01000207002
:1042800001070FD520F00800207007208DF80000EE
:10429000694604F1E00001950AF083FA022801D092
:1042A00000B1FFDF0020D6E770B50D460646FDF7EA
:1042B00077F818B10078272817D102E043F20200FE
:1042C00070BD0121304608F095FD040000D1FFDFEC
:1042D000A079022809D16078C00706D02A46214675
:1042E0003046FEF776FF10B10FE0082070BDB4F83D
:1042F00060000E280BD204F1620102231022081F75
:1043000008F01DFC012101704570002070BD1120D6
:1043100070BD70B5064614460D4608460CF03EFAD0
:1043200018B920460CF060FA08B1102070BDA6F54F
:104330007F40FF380ED03046FDF732F838B1417873
:1043400022464B08811C1846FDF7A7F907E043F207
:10435000020070BD2046FDF74EFE0028F9D1102165
:10436000E01D0BF0F6FEE21D294604F1170000F0F7
:1043700032F9002070BD2DE9F04104468AB015469F
:104380000E46002708460CF056FA18B928460CF0DD
:1043900052FA18B110200AB0BDE8F0812046FCF7AF
:1043A000FFFF5FEA000804D098F80000272810D12A
:1043B00002E043F20200EEE70121204608F01AFD78
:1043C000040000D1FFDF2078400702D56078800725
:1043D00001D40820DFE7D4E91D01497801B18DB18E
:1043E000407800B176B1ADB1EA1D06A8E16800F0F1
:1043F000F2F8102206A905F1170014F05BF818B1C5
:10440000042707E00720C6E71022E91D04F12D006C
:1044100014F07CF82EB11022F11D04F11D0014F0EF
:1044200075F82078252140F0020020704046FCF706
:10443000E9FF2078C10715D020F00100207002208C
:104440008DF8000004F11D000290103003908DF8EB
:1044500004706946B3300AF0A4F9022803D010B101
:10446000FFDF00E02777002095E770B50D46064690
:104470000BB1072070BDFCF793FF040007D0207834
:10448000222802D3A07F400604D4082070BD43F246
:10449000020070BDA5B12946304607F04CFD02F080
:1044A000D6FA297C4A08E17F62F30001E1772A7C91
:1044B00062F34101E177297C890884F8201004E047
:1044C000304607F05BFD02F0C2FAA17F21F0400107
:1044D000A17770BD70B50D46FCF762FF040005D0F2
:1044E00028460CF081F920B1102070BD43F2020083
:1044F00070BD29462046FEF73DFE002070BD04E059
:1045000010F8012B0AB100207047491E89B2F7D27A
:104510000120704710B5C4780B7864F300030B706A
:10452000C478640864F341030B70C478A40864F38E
:1045300082030B70C478E40864F3C3030B7003793F
:10454000117863F30001117003795B0863F3410193
:10455000117003799B0863F3820111700079C00820
:1045600060F3C301117010BD70B51546064602F028
:1045700043FC040000D1FFDF207820F00F00801CF6
:1045800020F0F0002030207066802868A060BDE830
:10459000704002F034BC10B5134C94F83000002881
:1045A00008D104F12001A1F110000AF03CF901202A
:1045B00084F8300010BD10B190F8B9202AB10A4833
:1045C00090F8350018B1002003E0B83001E006484B
:1045D00034300860704708B50023009313460A463C
:1045E00008F003FE08BD0000B401002018B1817876
:1045F000012938D101E010207047018842F60112EC
:10460000881A914231D018DC42F60102A1EB020077
:1046100091422AD00CDC41B3B1F5C05F25D06FF4D4
:10462000C050081821D0A0F57060FF381BD11CE0E5
:1046300001281AD002280AD117E0B0F5807F14D0E3
:1046400008DC012811D002280FD003280DD0FF2844
:1046500009D10AE0B0F5817F07D0A0F5807003385A
:1046600003D0012801D0002070470F2070470B288D
:1046700026D008DC1BD2DFE800F01C2025251A25F7
:10468000292325271E0011281CD008DC0C2817D050
:104690000D281DD00F2815D0102808D110E0822831
:1046A00009D0842810D0852810D0872812D0032064
:1046B0007047002070470520704743F203007047A1
:1046C000072070470F20704704207047062070476E
:1046D0000C20704743F20200704738B50C460500C5
:1046E00041D06946FFF7D4FA002819D19DF800108F
:1046F000607861F3020060706946681CFFF7C8FAD1
:1047000000280DD19DF80010607861F3C50060703D
:10471000A978C1F34101012903D0022905D007205E
:1047200038BD217821F0200102E0217841F02001FC
:104730002170410704D0A978C90861F38610607020
:10474000607810F0380F07D0A978090961F3C71015
:10475000607010F0380F02D16078400603D52078E1
:1047600040F040002070002038BD70B504460020A5
:10477000088015466068FFF7B0FF002816D1208931
:10478000A189884211D860688078C0070AD0B1F545
:10479000007F0AD840F20120B1FBF0F200FB1210BA
:1047A000288007E0B1F5FF7F01D90C2070BD01F230
:1047B00001212980002070BD10B50478137864F3BE
:1047C000000313700478640864F3410313700478E1
:1047D000A40864F3820313700478E40864F3C30349
:1047E00013700478240964F30413137004786409C3
:1047F00064F3451313700078800960F38613137017
:1048000031B10878C10701D1800701D5012000E04E
:10481000002060F3C713137010BD4278530702D015
:1048200002F0070306E012F0380F02D0C2F3C20311
:1048300000E001234A7863F302024A70407810F0E6
:10484000380F02D0C0F3C20005E0430702D000F0E9
:10485000070000E0012060F3C5024A7070472DE9AF
:10486000F04F95B00D00804615D0B8F1000F16D06E
:104870001221284613F0C9FE4FF6FF7B05AA01213D
:10488000584606F000FA0024264637464FF42059D1
:104890006FF4205A75E0102015B0BDE8F08F0720A6
:1048A000FAE700BF9DF81E0001280AD1BDF81C00E0
:1048B00048450BD010EB0A000AD001280CD0022882
:1048C0000CD0042C0ED0052C0FD10DE0012400E0FB
:1048D0000224BDF81A6008E0032406E00424BDF8B1
:1048E0001A7002E0052400E00624BDF81A104145C4
:1048F00047D12C74BEB34FF0000810AA4FF0070A3E
:10490000CDE90282CDE900A80DF13C091023CDF8D4
:10491000109042463146584606F068FA08BBBDF88A
:104920003C002A46C0B210A909F0E6FFC8B9AE8122
:10493000CFB1CDE900A80DF1080C0AAE40468CE8D5
:104940004102132300223946584606F04FFA40B977
:10495000BDF83C00F11CC01EC0B22A1D09F0CCFFFE
:1049600010B1032098E70AE0BDF82900E881062C81
:1049700005D19DF81E00A872BDF81C0028810020FA
:104980008AE705A806F08BF900288BD0FFF76FFEA9
:1049900082E72DE9F0471C46DDE90978DDF8209033
:1049A00015460E00824600D1FFDF0CB1208818B1F9
:1049B000D5B11120BDE8F087022D01D0012100E022
:1049C000002106F1140005F04FF8A8F80000024697
:1049D0003B462946504606F0A9FBC9F8000008B935
:1049E000A41C3C600020E5E71320E3E7F0B4144684
:1049F000DDE904528DB1002314B1022C09D101E08C
:104A0000012306E00D7CEE0703D025F0010501230C
:104A10000D742146F0BC06F0BFBC1A80F0BC704794
:104A20002DE9FE4F91461A881C468A468046FAB107
:104A300002AB494606F07AFB050019D04046A61C99
:104A4000278808F01BFB3246072629463B4600967E
:104A500007F047FF20882346CDE900504A465146DB
:104A60004046FFF7C3FF002020800120BDE8FE8FF5
:104A70000020FBE72DE9F04786B09146DDE90E46C0
:104A80000F46824603AA05A904A8109D8DE80700D9
:104A90009846324621465046FFF77BFF049909B1FC
:104AA000012200E000222A70002817D1F84A03AB47
:104AB0001060059A009104F11400CDE901204A46E6
:104AC0003946504605F087FB90B108280ED2DFE842
:104AD00000F00407040D0D090B0B002006B069E778
:104AE0001120FBE70720F9E70820F7E70320F5E7A7
:104AF000BDF80C100498CDE900014346324621462A
:104B00005046FFF773FFE8E72DE9F04389B00D4603
:104B1000DDE9108781461C461646142103A813F0D0
:104B200096FD012002218DF810108DF80C008DF8F3
:104B30001170ADF8146064B1A278D20709D08DF875
:104B40001600E088ADF81A00A088ADF81800A0683B
:104B5000079008A80095CDE90110424603A94846F0
:104B60006B68FFF787FF09B0BDE8F083F0B58BB045
:104B700000240646069407940727089405A809947C
:104B8000019400970294CDE903400D46102322467C
:104B9000304606F02BF978B90AA806A901940097C7
:104BA0000294CDE90310BDF81430002229463046A6
:104BB00005F0F2FE002801D0FFF759FD0BB0F0BD63
:104BC00005F092BD2DE9FC410C468046002602F01E
:104BD00013F9054620780D287ED2DFE800F0BC07E7
:104BE00013B325BD49496383AF959B00A84800686E
:104BF00020B1417841F010014170ADE0404602F033
:104C00002BF9A9E00421404608F0F4F8070000D190
:104C1000FFDF07F11401404604F0BAFEA5BB1321E3
:104C20004046FDF7F8FC97E00421404608F0E2F822
:104C3000070000D1FFDFE088ADF800000020B88158
:104C40009DF80000010704D5C00602D5A088B881F0
:104C500005E09DF8010040067ED5A088F88105B9E1
:104C6000FFDF22462946404601F068FC022673E039
:104C7000E188ADF800109DF8011009060FD507284E
:104C800003D006280AD00AE024E00421404608F0B8
:104C9000B1F8060000D1FFDFA088F0810226CDB96F
:104CA000FFDF17E00421404608F0A4F8070000D118
:104CB000FFDF07F1140005F04EFD90F0010F02D167
:104CC000E079000648D5387C022640F002003874AE
:104CD00005B9FFDF224600E03DE02946404601F0ED
:104CE0002DFC39E00421404608F084F8017C002DB9
:104CF00001F00206C1F340016171017C21F0020163
:104D00000174E7D1FFDFE5E702260121404602F00A
:104D1000D5F821E00421404608F06CF805466068AB
:104D200000902089ADF8040001226946404602F057
:104D3000E6F8287C20F0020028740DE0002DC9D18F
:104D4000FFDFC7E702260021404603F0DEFA002D10
:104D5000C0D1FFDFBEE7FFDF3046BDE8FC813EB5D6
:104D60000C0009D001466B4601AA002006F0C0F8ED
:104D700020B1FFF77CFC3EBD10203EBD002020800E
:104D8000A0709DF8050002A900F00700FEF79CFF47
:104D900050B99DF8080020709DF8050002A9C0F3E5
:104DA000C200FEF791FF08B103203EBD9DF8080048
:104DB00060709DF80500C109A07861F30410A0702F
:104DC0009DF80510890961F3C300A0709DF80410D7
:104DD000890601D5022100E0012161F342009DF81E
:104DE000001061F30000A07000203EBD70B51446B5
:104DF00006460D4651EA040005D075B108460BF091
:104E000011FD78B901E0072070BD2946304606F053
:104E1000D0F810B1BDE8704029E454B120460BF041
:104E200001FD08B1102070BD21463046BDE870403C
:104E300095E7002070BD2DE9FC5F0C4690460546C5
:104E4000002701780822007A3E46B2EB111F7DD17F
:104E500004F10A0100910A31821E4FF0020A04F1A6
:104E6000080B0191092A72D2DFE802F0EDE005F5A6
:104E700028287BAACE006888042107F0BBFF060023
:104E800000D1FFDFB08928B152270726C3E0000018
:104E90001802002051271026002C7DD06888A080A1
:104EA0000120A071A88900220099FFF79FFF002828
:104EB00073D1A8892081288AE081D1E0B5F81290C9
:104EC000072824D1E87B000621D5512709F11400D9
:104ED00086B2002CE1D0A88900220099FFF786FF56
:104EE00000285AD16888A08084F806A0A88920816B
:104EF0000120A073288A2082A4F81290A88A00902A
:104F000068884B46A969019A01F0F5FAA8E0502794
:104F100009F1120086B2002C3ED0A8890022594621
:104F2000FFF764FF002838D16888A080A889E08056
:104F3000287A072813D002202073288AE081E87B92
:104F4000C0096073A4F81090A88A01E085E082E0AF
:104F5000009068884B4604F11202A969D4E7012049
:104F6000EAE7B5F81290512709F1140086B2002C37
:104F700066D06888042107F03DFF83466888A080DA
:104F8000A88900220099FFF731FF00286ED184F82C
:104F900006A0A889208101E052E067E00420A07308
:104FA000288A2082A4F81290A88A009068884B462C
:104FB000A969019A01F09FFAA989ABF80E104FE098
:104FC0006888FCF7EDF907466888042107F012FFAE
:104FD000064607B9FFDF06B9FFDF687BC00702D0CE
:104FE0005127142601E0502712264CB36888A08070
:104FF000502F06D084F806A0287B594601F08BFA82
:105000002EE0287BA11DF9E7FE49A8894989814244
:1050100005D1542706269CB16888A08020E053273C
:105020000BE06888A080A889E08019E068880421E6
:1050300007F0E0FE00B9FFDF55270826002CF0D16D
:10504000A8F8006011E056270726002CF8D06888E1
:10505000A080002013E0FFDF02E0012808D0FFDF7E
:10506000A8F800600CB1278066800020BDE8FC9F96
:1050700057270726002CE3D06888A080687AA071A3
:10508000EEE7401D20F0030009B14143091D01EB8B
:105090004000704713B5DB4A00201071009848B1FA
:1050A0000024684607F0E1FC002C02D1D64A0099A2
:1050B00011601CBD01240020F4E770B50D460646C2
:1050C00086B014465C21284613F0C1FA04B9FFDF0C
:1050D000A0786874A2782188284601F046FA00205A
:1050E000A881E881228805F11401304604F035FCDE
:1050F0006A460121304605F0C6FD19E09DF803001F
:10510000000715D5BDF806103046FFF72FFD9DF8B6
:105110000300BDF8061040F010008DF80300BDF844
:105120000300ADF81400FF233046059A05F00CFF8C
:10513000684605F0B4FD0028E0D006B070BD10B59B
:105140000C4601F1140004F03FFC0146627C20464D
:10515000BDE8104001F03EBA70B50546042107F0E5
:1051600049FE040000D1FFDF04F114010C4628467B
:1051700004F00EFC21462846BDE8704004F00FBC48
:1051800070B58AB00C460646FCF70AF9050014D043
:105190002878222827D30CB1A08890B101208DF85F
:1051A0000C0003208DF8100000208DF8110054B180
:1051B000A088ADF81800206807E043F202000AB0AA
:1051C00070BD0920FBE7ADF81800059004213046BA
:1051D00007F010FE040000D1FFDF04F1140004F01A
:1051E0000AFC000701D40820E9E701F005FE60B1E0
:1051F00008A802210094CDE9011095F8232003A905
:1052000030466368FFF736FCD9E71120D7E72DE970
:10521000F04FB2F802A0834689B015468946504641
:10522000FCF7BEF807460421504607F0E3FD0026D0
:10523000044605964FF002080696ADF81C6007B9C3
:10524000FFDF04B9FFDF4146504606F024FA60B99B
:1052500007AA06A905A88DE8070042462146504640
:105260006368FFF796FB00B1FFDF664807AB066097
:10527000DDE9051204F11400CDF80090CDE903201A
:10528000CDE9013197F82320594650466B6804F068
:10529000FBFB06000AD0022E04D0032E14D0042EED
:1052A00000D0FFDF09B03046BDE8F08FBDF81C002C
:1052B0000028F7D00599CDE9001042462146504616
:1052C0006368FFF793FBEDE7687840F008006870CB
:1052D000E8E72DE9F04F9BB004464FF0000849483D
:1052E000ADF85480ADF83080ADF85080A0F808805B
:1052F000ADF81480ADF81880ADF82080ADF81C80B2
:10530000007916460D464746012808D0022806D0E7
:10531000032804D0042802D008201BB0C4E720468C
:105320000BF03CFAD0BB28460BF038FAB0BB6068F3
:105330000BF081FA90BB606848B16089218988428E
:1053400002D8B1F5007F01D90C20E6E780460BAA10
:1053500006A92846FFF709FA0028DED16868807898
:10536000C0F34100022808D19DF8190010F0380F51
:1053700003D028690BF056FA80B905A92069FFF718
:10538000ACF90028C9D1206950B1607880079DF838
:10539000150000F0380002D5C0B301E011E0A8BB51
:1053A0009DF8140080060ED59DF8150010F0380FFA
:1053B00003D060680BF036FA18B960680BF03BFA5E
:1053C00008B11020A9E707A96069FFF786F900284E
:1053D000A3D1606940B19DF81D0000F007010129CB
:1053E0003FD110F0380F3CD008A9A069FFF775F93C
:1053F000002892D19DF81C00800632D49DF8200030
:10540000800604E0180200201000002029E028D4C3
:10541000A06940B19DF8210000F00701012920D1C9
:1054200010F0380F1DD0E06818B10078C8B11C2802
:1054300017D20EAA611C2046FFF7BEF90120B9461B
:1054400060F30F27BA4607468DF84E0042F6030078
:10545000ADF84C000DF13B0217A9286809F06BFA72
:1054600008B1072059E79DF85C0016A9CDF8009017
:10547000C01CCDE9019100F0FF0B00230BF20122CB
:10548000514613A805F042FBF0BBBDF85800099047
:10549000FE482A8929690092CDE901106B89BDF87F
:1054A0002C202868069905F031FB01007ED1207878
:1054B0004FF0020AC10601D480062BD5ADF80C903E
:1054C000606950B907A906A8FFF7A7F99DF81D0064
:1054D00020F00700401C8DF81D009DF81C008DF881
:1054E0004E7040F0C8008DF81C0042F60210ADF876
:1054F0004C000CA903AACDF800A0CDE9012100239E
:1055000040F2032213A800E01EE0079905F0FEFA1E
:1055100001004BD1DD484D4608385B460089ADF8A7
:1055200039000EA8CDE90290CDF80490CDF8109086
:105530004FF007090022CDF80090BDF858104FF643
:10554000FF7005F029FA10B1FFF791F8E5E69DF834
:105550003800000625D52946012060F30F218DF87B
:105560004E704FF42450ADF84C00ADF810506278F6
:105570009DF81000002362F300008DF8100062789F
:10558000CDF800A0520862F341008DF8100004AA83
:10559000CDE9012540F2032213A805F0B7FA010076
:1055A00004D1606888B32069A8B900E086E005A945
:1055B00006A8FFF732F96078800706D49DF8150039
:1055C00020F038008DF8150005E09DF8140040F03B
:1055D00040008DF814008DF84E7042F60110ADF8C1
:1055E0004C00208940F20121B0FBF1F201FB1202D4
:1055F000606814ABCDF80080CDE90103002313A847
:10560000059905F083FA010058D12078C00729D008
:10561000ADF80C50A06950B908A906A8FFF7FDF82D
:105620009DF8210020F00700401C8DF821009DF816
:1056300020008DF84E7040F040008DF8200042F6BA
:105640000310ADF84C0015A903AACDF800A0CDE9D0
:105650000121002340F2032213A8089905F056FA0D
:1056600001002BD1E06868B32946012060F30F21C7
:105670008DF84E7042F60410ADF84C00E06800233F
:1056800002788DF8602040788DF86100E06818AAF3
:105690004088ADF86200E06800798DF86400E06849
:1056A000C088ADF86500CDF80090CDE901254FF434
:1056B000027213A805F02AFA010003D0099800F03D
:1056C000B5FF2AE6714803210838017156B10089F7
:1056D0003080BDF850007080BDF83000B080BDF85B
:1056E0005400F080002018E670B501258AB01646F7
:1056F0000B46012802D0022816D104E08DF80E5086
:105700004FF4205003E08DF80E5042F60100ADF842
:105710000C005BB10024601C60F30F2404AA08A9EC
:10572000184609F008F918B1072048E5102046E5A9
:1057300004A99DF820205548CDE90021801E029043
:105740000023214603A802F2012205F0DFF910B17F
:10575000FEF78DFF33E54D4808380EB1C188318022
:10576000057100202BE5F0B593B0074601268DF8B2
:105770003E6041F60100ADF83C0012AA0FA9304688
:10578000FFF7B2FF002848D1404C0025083CE7B3A2
:105790001C2102A812F05BFF9DF808008DF83E6006
:1057A00040F020008DF8080042F60520ADF83C00DE
:1057B0000E959DF83A00119520F00600801C8DF89A
:1057C0003A009DF838006A4620F0FF008DF8380056
:1057D0009DF8390009A920F0FF008DF83900042058
:1057E000ADF82C00ADF830000EA80A9011A80D906D
:1057F0000FA80990ADF82E5002A8FFF76AFD002807
:105800000BD1BDF80000608100E008E0BDF80400A5
:10581000A081401CE0812571002013B0F0BD65819E
:10582000A581BDF84800F4E72DE9F74F1749A0B06E
:105830000024083917940A79A146012A04D0022AC3
:1058400002D0082023B02FE5CA88824201D006206A
:10585000F8E721988A46824201D10720F2E7012029
:105860002146ADF848004FF6FF7860F30F21ADF800
:105870004A808DF86E0042F6020B06918DF8724058
:10588000ADF86CB0ADF870401CA901E0200200201A
:105890001391ADF8508012A805F025FA00252E4688
:1058A0002F460DAB072212A9404605F01FFA78B12A
:1058B00082285DD195B38EB3ADF86450ADF86660C3
:1058C0009DF85E008DF8144019AC012864D06BE09F
:1058D0009DF83A001FB3012859D1BDF83810594539
:1058E0001FD118A809A901940294CDE9031007203B
:1058F0000090BDF8361010230022404605F076FADD
:10590000B0BBBDF86000042801D006284AD1BDF81C
:105910002410219881423AD10F2093E73AE00128E0
:1059200035D1BDF83800B0F5205F03D042F6010153
:1059300088422CD1BAF80600BDF83610884201D151
:10594000012700E0002705B19EB1219881421ED1B8
:1059500018A809AA01940294CDE903200720009019
:105960000D4610230022404605F040FA00B902E03F
:105970002DE04E460BE0BDF86000022801D0102853
:1059800010D1C0B217AA09A908F0B6FF50B9BDF8E6
:10599000369086E7052055E705A917A8221D08F0CF
:1059A000CAFF08B103204DE79DF814000023001D35
:1059B000C2B28DF8142022980092CDE901401BA8B4
:1059C000069905F0A3F810B902228AF80420FEF720
:1059D0004EFE37E710B50B46401E88B084B205AACC
:1059E00000211846FEF7E8FE00200DF1080C06AA7B
:1059F00005A901908CE807000720009001230022F0
:105A000021464FF6FF7004F0C7FF0446BDF81800AA
:105A1000012800D0FFDF2046FEF729FE08B010BDA8
:105A2000F0B5F94F044687B038790E46032804D004
:105A3000042802D0082007B0F0BD04AA03A920461C
:105A4000FEF793FE0500F6D160688078C0F3410050
:105A500002280AD19DF80D0010F0380F05D02069FA
:105A60000AF0E0FE08B11020E5E7208905AA2169C7
:105A70008DE807006389BDF810202068039905F0C0
:105A800045F810B1FEF7F3FDD5E716B1BDF81400E7
:105A90003080042038712846CDE7F8B50C00064662
:105AA0000BD001464FF6FF7500236A46284605F0E5
:105AB0001FFA20B1FEF7DBFDF8BD1020F8BD6946E6
:105AC0002046FEF70AFE0028F8D1A078314600F003
:105AD00001032846009A05F037FAEBE730B587B0A6
:105AE000144600220DF1080C05AD01928CE82C0043
:105AF000072200920A46014623884FF6FF7004F001
:105B00004BFFBDF814102180FEF7B1FD07B030BD8A
:105B100070B50D46042107F06DF9040000D1FFDFD8
:105B2000294604F11400BDE8704003F05DBF70B574
:105B30000D46042107F05EF9040000D1FFDF29467D
:105B400004F11400BDE8704003F071BF70B50D465C
:105B5000042107F04FF9040000D1FFDF294604F1CA
:105B60001400BDE8704003F089BF70B505460421FC
:105B700007F040F9040000D1FFDF214628462368E2
:105B8000BDE870400122FEF74BBF70B50646042108
:105B900007F030F9040000D1FFDF04F1140003F036
:105BA00013FF401D20F0030511E0011D00880022B5
:105BB000431821463046FEF733FF00280BD0607CA7
:105BC000ABB2684382B2A068011D06F0EEFFA06888
:105BD00041880029E9D170BD70B50546042107F060
:105BE00009F9040000D1FFDF214628466368BDE8BB
:105BF00070400222FEF714BF70B50E46054601F054
:105C0000FBF8040000D1FFDF01202072667265807E
:105C1000207820F00F00001D20F0F00040302070B0
:105C2000BDE8704001F0EBB810B50446012900D082
:105C3000FFDF2046BDE81040012102F066BB2DE9E0
:105C4000F04F97B04FF0000A0C008346ADF818A053
:105C5000D04619D0E06830B1A068A8B10188ADF88D
:105C60001810A0F800A05846FBF79AFB070043F273
:105C7000020967D03878222862D30421584607F0F9
:105C8000B9F8050005D103E0102017B0BDE8F08F8A
:105C9000FFDF05F1140003F097FE401D20F003061E
:105CA000A078012803D0022801D00720EDE7208842
:105CB00078B1401C81B209AA584604F0E4FF09A853
:105CC00004F0EDFF9DF82E204FF45051012A0DD124
:105CD00002E043F20300D8E7BDF82C20A2F52453DC
:105CE000023B03D1822801D0A0B901E00846CCE7ED
:105CF000E068B0B1CDE902A0072006AACDF804A063
:105D000000900492A2882188BDF81830584604F00B
:105D100043FE10B1FEF7ABFCB7E7A168BDF8180071
:105D200008809DF82700C00602D543F20140ACE789
:105D30000D9838B1A1780078012905D080071AD4D0
:105D40000820A2E74846A0E7C007F9D002208DF856
:105D50003C00A8684FF00009A0B1697C42887143FB
:105D600091420FD98AB2B3B2011D06F0D4FE80462B
:105D7000A0F800A006E003208DF83C00D5F80080D4
:105D80004FF001099DF8280010F0380F00D1FFDF17
:105D90009DF828001D49C0F3C200084497F823105D
:105DA00010F8010C884201D90F206EE72088ADF869
:105DB000400014A90095CDE90191434607220FA99F
:105DC0005846FEF757FE002885D19DF8500050B97F
:105DD000A078012807D1687CB3B2704382B2A8686A
:105DE000011D06F0ACFE00204FE770B506461546D3
:105DF0000C460846FEF7FAFB002809D12A46214640
:105E00003046BDE870406FE418020020B2890100FE
:105E100070BD09E570B51E4614460D0009D044B1A9
:105E2000616831B138B1F849C988814203D007208F
:105E300070BD102070BD2068FEF7D8FB0028F9D196
:105E4000324621462846BDE87040FFF742BA70B599
:105E500015460C0006D038B1EB490989814203D0C0
:105E6000072070BD102070BD2068FEF7BFFB002822
:105E7000F9D129462046BDE87040D1E570B5064607
:105E800086B00D46144610460AF0AEFCD0BB6068E2
:105E90000AF0D1FCB0BBA6F57F40FF3803D03046F6
:105EA000FBF77EFA80B128466946FEF7D8FC002849
:105EB0000CD19DF810100F2008293CD2DFE801F02A
:105EC00008060606060A0A0843F2020006B070BD7C
:105ED0000320FBE79DF80210012908D1BDF800104E
:105EE000B1F5C05FF2D06FF4C052D142EED09DF850
:105EF000061001290DD1BDF80410A1F5285106297D
:105F000007D200E028E0DFE801F003030403030305
:105F1000DCE79DF80A1001290ED1BDF80810B1F593
:105F2000245FD3D0A1F524510239CFD00129CDD09F
:105F3000022901D1CAE7FFDF606878B9002305AA0A
:105F40002946304604F0D4FF10B1FEF790FBBDE7C0
:105F50009DF81400800601D41020B7E7618822461E
:105F600028466368FFF7BAFDB0E72DE9F0438146A4
:105F700087B08846144610460AF036FC18B1102047
:105F800007B0BDE8F083002306AA4146484604F066
:105F9000AFFF10B1FEF76BFBF2E79DF81800C006EB
:105FA00002D543F20140EBE70025072705A801953C
:105FB00000970295CDE9035062884FF6FF73414682
:105FC000484604F013FF060013D160680AF00CFC89
:105FD00060B960680195CDE9025000970495238867
:105FE00062884146484604F001FF0646BDF81400A9
:105FF00020803046CEE739B1834B0A889B899A428C
:1060000002D843F20300704719E610B586B07E4C03
:106010000423ADF81430638943B1A4898C4201D2C2
:10602000914205D943F2030006B010BD0620FBE7FC
:10603000ADF81010002100910191ADF8003002215F
:106040008DF8021005A9029104A90391ADF8122060
:106050006946FFF7F4FDE7E72DE9FC4781460E4668
:1060600008460AF09BFB88BB4846FBF799F95FEAB4
:1060700000080AD098F80000222829D304214846B5
:1060800006F0B8FE070005D103E043F20200BDE8C8
:10609000FC87FFDF07F1140003F0ADFC0546307804
:1060A000012803D0022804D00720F0E7A8070FD565
:1060B00002E015F01C0F0BD0B079341DC00709D0D9
:1060C000E08838B1A0680AF069FB18B11020DEE75B
:1060D0000820DCE732782088002628B3A0F20113DC
:1060E0000721112B18D20CD2DFE803F00B090D0B9E
:1060F0001D0B121D100B0B1D1D1D1D0B1D00022A5B
:1061000011D10846C3E7012AFBD00CE02A0700E0C2
:10611000EA06002AF5DA06E0A0F5C0721F2A02D9C5
:106120007D3A022AEDD8C6B200F066FE50B198F86A
:106130002300CDE90006FA89234639464846FEF792
:10614000E3FCA4E71120A2E72DE9F04F8BB01F4636
:1061500015460C4683460026FBF722F928B1007845
:10616000222805D208200BB090E543F20200FAE79E
